{
  "contractName": "CharityChainSmartContract",
  "abi": [
    {
      "constant": true,
      "inputs": [],
      "name": "name",
      "outputs": [
        {
          "internalType": "string",
          "name": "",
          "type": "string"
        }
      ],
      "payable": false,
      "stateMutability": "view",
      "type": "function"
    },
    {
      "constant": false,
      "inputs": [
        {
          "internalType": "string",
          "name": "_name",
          "type": "string"
        }
      ],
      "name": "setName",
      "outputs": [
        {
          "internalType": "string",
          "name": "",
          "type": "string"
        }
      ],
      "payable": false,
      "stateMutability": "nonpayable",
      "type": "function"
    }
  ],
  "bytecode": "0x608060405260405180606001604052806035815260200161051e6035913960009080519060200190610032929190610045565b5034801561003f57600080fd5b506100ea565b828054600181600116156101000203166002900490600052602060002090601f016020900481019282601f1061008657805160ff19168380011785556100b4565b828001600101855582156100b4579182015b828111156100b3578251825591602001919060010190610098565b5b5090506100c191906100c5565b5090565b6100e791905b808211156100e35760008160009055506001016100cb565b5090565b90565b610425806100f96000396000f3fe608060405234801561001057600080fd5b50600436106100365760003560e01c806306fdde031461003b578063c47f0027146100be575b600080fd5b6100436101f2565b6040518080602001828103825283818151815260200191508051906020019080838360005b83811015610083578082015181840152602081019050610068565b50505050905090810190601f1680156100b05780820380516001836020036101000a031916815260200191505b509250505060405180910390f35b610177600480360360208110156100d457600080fd5b81019080803590602001906401000000008111156100f157600080fd5b82018360208201111561010357600080fd5b8035906020019184600183028401116401000000008311171561012557600080fd5b91908080601f016020809104026020016040519081016040528093929190818152602001838380828437600081840152601f19601f820116905080830192505050505050509192919290505050610290565b6040518080602001828103825283818151815260200191508051906020019080838360005b838110156101b757808201518184015260208101905061019c565b50505050905090810190601f1680156101e45780820380516001836020036101000a031916815260200191505b509250505060405180910390f35b60008054600181600116156101000203166002900480601f0160208091040260200160405190810160405280929190818152602001828054600181600116156101000203166002900480156102885780601f1061025d57610100808354040283529160200191610288565b820191906000526020600020905b81548152906001019060200180831161026b57829003601f168201915b505050505081565b606081600090805190602001906102a892919061034b565b5060008054600181600116156101000203166002900480601f01602080910402602001604051908101604052809291908181526020018280546001816001161561010002031660029004801561033f5780601f106103145761010080835404028352916020019161033f565b820191906000526020600020905b81548152906001019060200180831161032257829003601f168201915b50505050509050919050565b828054600181600116156101000203166002900490600052602060002090601f016020900481019282601f1061038c57805160ff19168380011785556103ba565b828001600101855582156103ba579182015b828111156103b957825182559160200191906001019061039e565b5b5090506103c791906103cb565b5090565b6103ed91905b808211156103e95760008160009055506001016103d1565b5090565b9056fea265627a7a723158201316afc2bc0e3d847596609610d0631a912f36260d476e05f55bdf4a3b40e75964736f6c6343000510003243686172697479436861696e202d204120426c6f636b636861696e2062617365642063686172697479204170706c69636174696f6e",
  "source": "pragma solidity ^0.5.0;\r\n\r\ncontract CharityChainSmartContract {\r\n  string public name = \"CharityChain - A Blockchain based charity Application\";\r\n\r\n  \r\n  function setName(string memory _name) public returns (string memory) {\r\n    name = _name;\r\n    return name;\r\n  }\r\n\r\n}",
  "sourcePath": "D:\\College Project Work\\CharityChain - A Blockchain Based Charity Application\\practice\\day 1\\starter_kit\\src\\contracts\\CharityChainSmartContract.sol",
  "compiler": {
    "name": "solc",
    "version": "0.5.16+commit.9c3226ce.Emscripten.clang"
  },
  "schemaVersion": "3.0.23",
  "updatedAt": "2022-02-27T08:23:28.769Z",
  "networkType": "ethereum",
  "devdoc": {
    "methods": {}
  },
  "userdoc": {
    "methods": {}
  }
}